{
  "_format": "hh-sol-artifact-1",
  "contractName": "DeReport",
  "sourceName": "contracts/DeReport.sol",
  "abi": [
    {
      "inputs": [],
      "stateMutability": "nonpayable",
      "type": "constructor"
    },
    {
      "anonymous": false,
      "inputs": [
        {
          "indexed": true,
          "internalType": "address",
          "name": "owner",
          "type": "address"
        },
        {
          "indexed": true,
          "internalType": "address",
          "name": "approved",
          "type": "address"
        },
        {
          "indexed": true,
          "internalType": "uint256",
          "name": "tokenId",
          "type": "uint256"
        }
      ],
      "name": "Approval",
      "type": "event"
    },
    {
      "anonymous": false,
      "inputs": [
        {
          "indexed": true,
          "internalType": "address",
          "name": "owner",
          "type": "address"
        },
        {
          "indexed": true,
          "internalType": "address",
          "name": "operator",
          "type": "address"
        },
        {
          "indexed": false,
          "internalType": "bool",
          "name": "approved",
          "type": "bool"
        }
      ],
      "name": "ApprovalForAll",
      "type": "event"
    },
    {
      "anonymous": false,
      "inputs": [
        {
          "indexed": true,
          "internalType": "address",
          "name": "previousOwner",
          "type": "address"
        },
        {
          "indexed": true,
          "internalType": "address",
          "name": "newOwner",
          "type": "address"
        }
      ],
      "name": "OwnershipTransferred",
      "type": "event"
    },
    {
      "anonymous": false,
      "inputs": [
        {
          "indexed": true,
          "internalType": "address",
          "name": "from",
          "type": "address"
        },
        {
          "indexed": true,
          "internalType": "address",
          "name": "to",
          "type": "address"
        },
        {
          "indexed": true,
          "internalType": "uint256",
          "name": "tokenId",
          "type": "uint256"
        }
      ],
      "name": "Transfer",
      "type": "event"
    },
    {
      "inputs": [
        {
          "internalType": "address",
          "name": "to",
          "type": "address"
        },
        {
          "internalType": "uint256",
          "name": "tokenId",
          "type": "uint256"
        }
      ],
      "name": "approve",
      "outputs": [],
      "stateMutability": "nonpayable",
      "type": "function"
    },
    {
      "inputs": [
        {
          "internalType": "address",
          "name": "owner",
          "type": "address"
        }
      ],
      "name": "balanceOf",
      "outputs": [
        {
          "internalType": "uint256",
          "name": "",
          "type": "uint256"
        }
      ],
      "stateMutability": "view",
      "type": "function"
    },
    {
      "inputs": [
        {
          "internalType": "uint256",
          "name": "tokenId",
          "type": "uint256"
        }
      ],
      "name": "getApproved",
      "outputs": [
        {
          "internalType": "address",
          "name": "",
          "type": "address"
        }
      ],
      "stateMutability": "view",
      "type": "function"
    },
    {
      "inputs": [
        {
          "internalType": "address",
          "name": "owner",
          "type": "address"
        },
        {
          "internalType": "address",
          "name": "operator",
          "type": "address"
        }
      ],
      "name": "isApprovedForAll",
      "outputs": [
        {
          "internalType": "bool",
          "name": "",
          "type": "bool"
        }
      ],
      "stateMutability": "view",
      "type": "function"
    },
    {
      "inputs": [],
      "name": "name",
      "outputs": [
        {
          "internalType": "string",
          "name": "",
          "type": "string"
        }
      ],
      "stateMutability": "view",
      "type": "function"
    },
    {
      "inputs": [],
      "name": "owner",
      "outputs": [
        {
          "internalType": "address",
          "name": "",
          "type": "address"
        }
      ],
      "stateMutability": "view",
      "type": "function"
    },
    {
      "inputs": [
        {
          "internalType": "uint256",
          "name": "tokenId",
          "type": "uint256"
        }
      ],
      "name": "ownerOf",
      "outputs": [
        {
          "internalType": "address",
          "name": "",
          "type": "address"
        }
      ],
      "stateMutability": "view",
      "type": "function"
    },
    {
      "inputs": [],
      "name": "renounceOwnership",
      "outputs": [],
      "stateMutability": "nonpayable",
      "type": "function"
    },
    {
      "inputs": [
        {
          "internalType": "address",
          "name": "to",
          "type": "address"
        },
        {
          "internalType": "uint256",
          "name": "tokenId",
          "type": "uint256"
        },
        {
          "internalType": "string",
          "name": "uri",
          "type": "string"
        }
      ],
      "name": "safeMint",
      "outputs": [],
      "stateMutability": "nonpayable",
      "type": "function"
    },
    {
      "inputs": [
        {
          "internalType": "address",
          "name": "from",
          "type": "address"
        },
        {
          "internalType": "address",
          "name": "to",
          "type": "address"
        },
        {
          "internalType": "uint256",
          "name": "tokenId",
          "type": "uint256"
        }
      ],
      "name": "safeTransferFrom",
      "outputs": [],
      "stateMutability": "nonpayable",
      "type": "function"
    },
    {
      "inputs": [
        {
          "internalType": "address",
          "name": "from",
          "type": "address"
        },
        {
          "internalType": "address",
          "name": "to",
          "type": "address"
        },
        {
          "internalType": "uint256",
          "name": "tokenId",
          "type": "uint256"
        },
        {
          "internalType": "bytes",
          "name": "_data",
          "type": "bytes"
        }
      ],
      "name": "safeTransferFrom",
      "outputs": [],
      "stateMutability": "nonpayable",
      "type": "function"
    },
    {
      "inputs": [
        {
          "internalType": "address",
          "name": "operator",
          "type": "address"
        },
        {
          "internalType": "bool",
          "name": "approved",
          "type": "bool"
        }
      ],
      "name": "setApprovalForAll",
      "outputs": [],
      "stateMutability": "nonpayable",
      "type": "function"
    },
    {
      "inputs": [
        {
          "internalType": "bytes4",
          "name": "interfaceId",
          "type": "bytes4"
        }
      ],
      "name": "supportsInterface",
      "outputs": [
        {
          "internalType": "bool",
          "name": "",
          "type": "bool"
        }
      ],
      "stateMutability": "view",
      "type": "function"
    },
    {
      "inputs": [],
      "name": "symbol",
      "outputs": [
        {
          "internalType": "string",
          "name": "",
          "type": "string"
        }
      ],
      "stateMutability": "view",
      "type": "function"
    },
    {
      "inputs": [
        {
          "internalType": "uint256",
          "name": "index",
          "type": "uint256"
        }
      ],
      "name": "tokenByIndex",
      "outputs": [
        {
          "internalType": "uint256",
          "name": "",
          "type": "uint256"
        }
      ],
      "stateMutability": "view",
      "type": "function"
    },
    {
      "inputs": [
        {
          "internalType": "address",
          "name": "owner",
          "type": "address"
        },
        {
          "internalType": "uint256",
          "name": "index",
          "type": "uint256"
        }
      ],
      "name": "tokenOfOwnerByIndex",
      "outputs": [
        {
          "internalType": "uint256",
          "name": "",
          "type": "uint256"
        }
      ],
      "stateMutability": "view",
      "type": "function"
    },
    {
      "inputs": [
        {
          "internalType": "uint256",
          "name": "tokenId",
          "type": "uint256"
        }
      ],
      "name": "tokenURI",
      "outputs": [
        {
          "internalType": "string",
          "name": "",
          "type": "string"
        }
      ],
      "stateMutability": "view",
      "type": "function"
    },
    {
      "inputs": [],
      "name": "totalSupply",
      "outputs": [
        {
          "internalType": "uint256",
          "name": "",
          "type": "uint256"
        }
      ],
      "stateMutability": "view",
      "type": "function"
    },
    {
      "inputs": [
        {
          "internalType": "address",
          "name": "from",
          "type": "address"
        },
        {
          "internalType": "address",
          "name": "to",
          "type": "address"
        },
        {
          "internalType": "uint256",
          "name": "tokenId",
          "type": "uint256"
        }
      ],
      "name": "transferFrom",
      "outputs": [],
      "stateMutability": "nonpayable",
      "type": "function"
    },
    {
      "inputs": [
        {
          "internalType": "address",
          "name": "newOwner",
          "type": "address"
        }
      ],
      "name": "transferOwnership",
      "outputs": [],
      "stateMutability": "nonpayable",
      "type": "function"
    }
  ],
  "bytecode": "0x60806040523480156200001157600080fd5b506040805180820182526008815267111954995c1bdc9d60c21b602080830191825283518085019094526005845264111494149560da1b9084015281519192916200005f91600091620000ee565b50805162000075906001906020840190620000ee565b505050620000926200008c6200009860201b60201c565b6200009c565b620001d1565b3390565b600b80546001600160a01b038381166001600160a01b0319831681179093556040519116919082907f8be0079c531659141344cd1fd0a4f28419497f9722a3daafe3b4186f6b6457e090600090a35050565b828054620000fc9062000194565b90600052602060002090601f0160209004810192826200012057600085556200016b565b82601f106200013b57805160ff19168380011785556200016b565b828001600101855582156200016b579182015b828111156200016b5782518255916020019190600101906200014e565b50620001799291506200017d565b5090565b5b808211156200017957600081556001016200017e565b600181811c90821680620001a957607f821691505b60208210811415620001cb57634e487b7160e01b600052602260045260246000fd5b50919050565b611d2780620001e16000396000f3fe608060405234801561001057600080fd5b506004361061012c5760003560e01c806370a08231116100ad578063b88d4fde11610071578063b88d4fde14610266578063c87b56dd14610279578063cd279c7c1461028c578063e985e9c51461029f578063f2fde38b146102db57600080fd5b806370a082311461021f578063715018a6146102325780638da5cb5b1461023a57806395d89b411461024b578063a22cb4651461025357600080fd5b806323b872dd116100f457806323b872dd146101c05780632f745c59146101d357806342842e0e146101e65780634f6ccce7146101f95780636352211e1461020c57600080fd5b806301ffc9a71461013157806306fdde0314610159578063081812fc1461016e578063095ea7b31461019957806318160ddd146101ae575b600080fd5b61014461013f36600461176b565b6102ee565b60405190151581526020015b60405180910390f35b6101616102ff565b60405161015091906117e0565b61018161017c3660046117f3565b610391565b6040516001600160a01b039091168152602001610150565b6101ac6101a7366004611828565b61041e565b005b6008545b604051908152602001610150565b6101ac6101ce366004611852565b610534565b6101b26101e1366004611828565b610565565b6101ac6101f4366004611852565b6105fb565b6101b26102073660046117f3565b610616565b61018161021a3660046117f3565b6106a9565b6101b261022d36600461188e565b610720565b6101ac6107a7565b600b546001600160a01b0316610181565b6101616107dd565b6101ac6102613660046118a9565b6107ec565b6101ac610274366004611971565b6107fb565b6101616102873660046117f3565b610833565b6101ac61029a3660046119ed565b61083e565b6101446102ad366004611a58565b6001600160a01b03918216600090815260056020908152604080832093909416825291909152205460ff1690565b6101ac6102e936600461188e565b61087c565b60006102f982610917565b92915050565b60606000805461030e90611a8b565b80601f016020809104026020016040519081016040528092919081815260200182805461033a90611a8b565b80156103875780601f1061035c57610100808354040283529160200191610387565b820191906000526020600020905b81548152906001019060200180831161036a57829003601f168201915b5050505050905090565b600061039c8261093c565b6104025760405162461bcd60e51b815260206004820152602c60248201527f4552433732313a20617070726f76656420717565727920666f72206e6f6e657860448201526b34b9ba32b73a103a37b5b2b760a11b60648201526084015b60405180910390fd5b506000908152600460205260409020546001600160a01b031690565b6000610429826106a9565b9050806001600160a01b0316836001600160a01b031614156104975760405162461bcd60e51b815260206004820152602160248201527f4552433732313a20617070726f76616c20746f2063757272656e74206f776e656044820152603960f91b60648201526084016103f9565b336001600160a01b03821614806104b357506104b381336102ad565b6105255760405162461bcd60e51b815260206004820152603860248201527f4552433732313a20617070726f76652063616c6c6572206973206e6f74206f7760448201527f6e6572206e6f7220617070726f76656420666f7220616c6c000000000000000060648201526084016103f9565b61052f8383610959565b505050565b61053e33826109c7565b61055a5760405162461bcd60e51b81526004016103f990611ac6565b61052f838383610ab1565b600061057083610720565b82106105d25760405162461bcd60e51b815260206004820152602b60248201527f455243373231456e756d657261626c653a206f776e657220696e646578206f7560448201526a74206f6620626f756e647360a81b60648201526084016103f9565b506001600160a01b03919091166000908152600660209081526040808320938352929052205490565b61052f838383604051806020016040528060008152506107fb565b600061062160085490565b82106106845760405162461bcd60e51b815260206004820152602c60248201527f455243373231456e756d657261626c653a20676c6f62616c20696e646578206f60448201526b7574206f6620626f756e647360a01b60648201526084016103f9565b6008828154811061069757610697611b17565b90600052602060002001549050919050565b6000818152600260205260408120546001600160a01b0316806102f95760405162461bcd60e51b815260206004820152602960248201527f4552433732313a206f776e657220717565727920666f72206e6f6e657869737460448201526832b73a103a37b5b2b760b91b60648201526084016103f9565b60006001600160a01b03821661078b5760405162461bcd60e51b815260206004820152602a60248201527f4552433732313a2062616c616e636520717565727920666f7220746865207a65604482015269726f206164647265737360b01b60648201526084016103f9565b506001600160a01b031660009081526003602052604090205490565b600b546001600160a01b031633146107d15760405162461bcd60e51b81526004016103f990611b2d565b6107db6000610c5c565b565b60606001805461030e90611a8b565b6107f7338383610cae565b5050565b61080533836109c7565b6108215760405162461bcd60e51b81526004016103f990611ac6565b61082d84848484610d7d565b50505050565b60606102f982610db0565b600b546001600160a01b031633146108685760405162461bcd60e51b81526004016103f990611b2d565b6108728383610f1f565b61052f8282610f39565b600b546001600160a01b031633146108a65760405162461bcd60e51b81526004016103f990611b2d565b6001600160a01b03811661090b5760405162461bcd60e51b815260206004820152602660248201527f4f776e61626c653a206e6577206f776e657220697320746865207a65726f206160448201526564647265737360d01b60648201526084016103f9565b61091481610c5c565b50565b60006001600160e01b0319821663780e9d6360e01b14806102f957506102f982610fc4565b6000908152600260205260409020546001600160a01b0316151590565b600081815260046020526040902080546001600160a01b0319166001600160a01b038416908117909155819061098e826106a9565b6001600160a01b03167f8c5be1e5ebec7d5bd14f71427d1e84f3dd0314c0f7b2291e5b200ac8c7c3b92560405160405180910390a45050565b60006109d28261093c565b610a335760405162461bcd60e51b815260206004820152602c60248201527f4552433732313a206f70657261746f7220717565727920666f72206e6f6e657860448201526b34b9ba32b73a103a37b5b2b760a11b60648201526084016103f9565b6000610a3e836106a9565b9050806001600160a01b0316846001600160a01b03161480610a795750836001600160a01b0316610a6e84610391565b6001600160a01b0316145b80610aa957506001600160a01b0380821660009081526005602090815260408083209388168352929052205460ff165b949350505050565b826001600160a01b0316610ac4826106a9565b6001600160a01b031614610b2c5760405162461bcd60e51b815260206004820152602960248201527f4552433732313a207472616e73666572206f6620746f6b656e2074686174206960448201526839903737ba1037bbb760b91b60648201526084016103f9565b6001600160a01b038216610b8e5760405162461bcd60e51b8152602060048201526024808201527f4552433732313a207472616e7366657220746f20746865207a65726f206164646044820152637265737360e01b60648201526084016103f9565b610b99838383611014565b610ba4600082610959565b6001600160a01b0383166000908152600360205260408120805460019290610bcd908490611b78565b90915550506001600160a01b0382166000908152600360205260408120805460019290610bfb908490611b8f565b909155505060008181526002602052604080822080546001600160a01b0319166001600160a01b0386811691821790925591518493918716917fddf252ad1be2c89b69c2b068fc378daa952ba7f163c4a11628f55a4df523b3ef91a4505050565b600b80546001600160a01b038381166001600160a01b0319831681179093556040519116919082907f8be0079c531659141344cd1fd0a4f28419497f9722a3daafe3b4186f6b6457e090600090a35050565b816001600160a01b0316836001600160a01b03161415610d105760405162461bcd60e51b815260206004820152601960248201527f4552433732313a20617070726f766520746f2063616c6c65720000000000000060448201526064016103f9565b6001600160a01b03838116600081815260056020908152604080832094871680845294825291829020805460ff191686151590811790915591519182527f17307eab39ab6107e8899845ad3d59bd9653f200f220920489ca2b5937696c31910160405180910390a3505050565b610d88848484610ab1565b610d948484848461101f565b61082d5760405162461bcd60e51b81526004016103f990611ba7565b6060610dbb8261093c565b610e215760405162461bcd60e51b815260206004820152603160248201527f45524337323155524953746f726167653a2055524920717565727920666f72206044820152703737b732bc34b9ba32b73a103a37b5b2b760791b60648201526084016103f9565b6000828152600a602052604081208054610e3a90611a8b565b80601f0160208091040260200160405190810160405280929190818152602001828054610e6690611a8b565b8015610eb35780601f10610e8857610100808354040283529160200191610eb3565b820191906000526020600020905b815481529060010190602001808311610e9657829003601f168201915b505050505090506000610ed160408051602081019091526000815290565b9050805160001415610ee4575092915050565b815115610f16578082604051602001610efe929190611bf9565b60405160208183030381529060405292505050919050565b610aa98461112c565b6107f7828260405180602001604052806000815250611204565b610f428261093c565b610fa55760405162461bcd60e51b815260206004820152602e60248201527f45524337323155524953746f726167653a2055524920736574206f66206e6f6e60448201526d32bc34b9ba32b73a103a37b5b2b760911b60648201526084016103f9565b6000828152600a60209081526040909120825161052f928401906116bc565b60006001600160e01b031982166380ac58cd60e01b1480610ff557506001600160e01b03198216635b5e139f60e01b145b806102f957506301ffc9a760e01b6001600160e01b03198316146102f9565b61052f838383611237565b60006001600160a01b0384163b1561112157604051630a85bd0160e11b81526001600160a01b0385169063150b7a0290611063903390899088908890600401611c28565b602060405180830381600087803b15801561107d57600080fd5b505af19250505080156110ad575060408051601f3d908101601f191682019092526110aa91810190611c65565b60015b611107573d8080156110db576040519150601f19603f3d011682016040523d82523d6000602084013e6110e0565b606091505b5080516110ff5760405162461bcd60e51b81526004016103f990611ba7565b805181602001fd5b6001600160e01b031916630a85bd0160e11b149050610aa9565b506001949350505050565b60606111378261093c565b61119b5760405162461bcd60e51b815260206004820152602f60248201527f4552433732314d657461646174613a2055524920717565727920666f72206e6f60448201526e3732bc34b9ba32b73a103a37b5b2b760891b60648201526084016103f9565b60006111b260408051602081019091526000815290565b905060008151116111d257604051806020016040528060008152506111fd565b806111dc846112ef565b6040516020016111ed929190611bf9565b6040516020818303038152906040525b9392505050565b61120e83836113ed565b61121b600084848461101f565b61052f5760405162461bcd60e51b81526004016103f990611ba7565b6001600160a01b0383166112925761128d81600880546000838152600960205260408120829055600182018355919091527ff3f7a9fe364faab93b216da50a3214154f22a0a2b415b23a84c8169e8b636ee30155565b6112b5565b816001600160a01b0316836001600160a01b0316146112b5576112b5838261152c565b6001600160a01b0382166112cc5761052f816115c9565b826001600160a01b0316826001600160a01b03161461052f5761052f8282611678565b6060816113135750506040805180820190915260018152600360fc1b602082015290565b8160005b811561133d578061132781611c82565b91506113369050600a83611cb3565b9150611317565b60008167ffffffffffffffff811115611358576113586118e5565b6040519080825280601f01601f191660200182016040528015611382576020820181803683370190505b5090505b8415610aa957611397600183611b78565b91506113a4600a86611cc7565b6113af906030611b8f565b60f81b8183815181106113c4576113c4611b17565b60200101906001600160f81b031916908160001a9053506113e6600a86611cb3565b9450611386565b6001600160a01b0382166114435760405162461bcd60e51b815260206004820181905260248201527f4552433732313a206d696e7420746f20746865207a65726f206164647265737360448201526064016103f9565b61144c8161093c565b156114995760405162461bcd60e51b815260206004820152601c60248201527f4552433732313a20746f6b656e20616c7265616479206d696e7465640000000060448201526064016103f9565b6114a560008383611014565b6001600160a01b03821660009081526003602052604081208054600192906114ce908490611b8f565b909155505060008181526002602052604080822080546001600160a01b0319166001600160a01b03861690811790915590518392907fddf252ad1be2c89b69c2b068fc378daa952ba7f163c4a11628f55a4df523b3ef908290a45050565b6000600161153984610720565b6115439190611b78565b600083815260076020526040902054909150808214611596576001600160a01b03841660009081526006602090815260408083208584528252808320548484528184208190558352600790915290208190555b5060009182526007602090815260408084208490556001600160a01b039094168352600681528383209183525290812055565b6008546000906115db90600190611b78565b6000838152600960205260408120546008805493945090928490811061160357611603611b17565b90600052602060002001549050806008838154811061162457611624611b17565b600091825260208083209091019290925582815260099091526040808220849055858252812055600880548061165c5761165c611cdb565b6001900381819060005260206000200160009055905550505050565b600061168383610720565b6001600160a01b039093166000908152600660209081526040808320868452825280832085905593825260079052919091209190915550565b8280546116c890611a8b565b90600052602060002090601f0160209004810192826116ea5760008555611730565b82601f1061170357805160ff1916838001178555611730565b82800160010185558215611730579182015b82811115611730578251825591602001919060010190611715565b5061173c929150611740565b5090565b5b8082111561173c5760008155600101611741565b6001600160e01b03198116811461091457600080fd5b60006020828403121561177d57600080fd5b81356111fd81611755565b60005b838110156117a357818101518382015260200161178b565b8381111561082d5750506000910152565b600081518084526117cc816020860160208601611788565b601f01601f19169290920160200192915050565b6020815260006111fd60208301846117b4565b60006020828403121561180557600080fd5b5035919050565b80356001600160a01b038116811461182357600080fd5b919050565b6000806040838503121561183b57600080fd5b6118448361180c565b946020939093013593505050565b60008060006060848603121561186757600080fd5b6118708461180c565b925061187e6020850161180c565b9150604084013590509250925092565b6000602082840312156118a057600080fd5b6111fd8261180c565b600080604083850312156118bc57600080fd5b6118c58361180c565b9150602083013580151581146118da57600080fd5b809150509250929050565b634e487b7160e01b600052604160045260246000fd5b600067ffffffffffffffff80841115611916576119166118e5565b604051601f8501601f19908116603f0116810190828211818310171561193e5761193e6118e5565b8160405280935085815286868601111561195757600080fd5b858560208301376000602087830101525050509392505050565b6000806000806080858703121561198757600080fd5b6119908561180c565b935061199e6020860161180c565b925060408501359150606085013567ffffffffffffffff8111156119c157600080fd5b8501601f810187136119d257600080fd5b6119e1878235602084016118fb565b91505092959194509250565b600080600060608486031215611a0257600080fd5b611a0b8461180c565b925060208401359150604084013567ffffffffffffffff811115611a2e57600080fd5b8401601f81018613611a3f57600080fd5b611a4e868235602084016118fb565b9150509250925092565b60008060408385031215611a6b57600080fd5b611a748361180c565b9150611a826020840161180c565b90509250929050565b600181811c90821680611a9f57607f821691505b60208210811415611ac057634e487b7160e01b600052602260045260246000fd5b50919050565b60208082526031908201527f4552433732313a207472616e736665722063616c6c6572206973206e6f74206f6040820152701ddb995c881b9bdc88185c1c1c9bdd9959607a1b606082015260800190565b634e487b7160e01b600052603260045260246000fd5b6020808252818101527f4f776e61626c653a2063616c6c6572206973206e6f7420746865206f776e6572604082015260600190565b634e487b7160e01b600052601160045260246000fd5b600082821015611b8a57611b8a611b62565b500390565b60008219821115611ba257611ba2611b62565b500190565b60208082526032908201527f4552433732313a207472616e7366657220746f206e6f6e20455243373231526560408201527131b2b4bb32b91034b6b83632b6b2b73a32b960711b606082015260800190565b60008351611c0b818460208801611788565b835190830190611c1f818360208801611788565b01949350505050565b6001600160a01b0385811682528416602082015260408101839052608060608201819052600090611c5b908301846117b4565b9695505050505050565b600060208284031215611c7757600080fd5b81516111fd81611755565b6000600019821415611c9657611c96611b62565b5060010190565b634e487b7160e01b600052601260045260246000fd5b600082611cc257611cc2611c9d565b500490565b600082611cd657611cd6611c9d565b500690565b634e487b7160e01b600052603160045260246000fdfea26469706673582212200b3be0dfc1a355eae2f1e143ba04f2813556eb010e102484990b7bcc82435bab64736f6c63430008090033",
  "linkReferences": {},
  "deployedLinkReferences": {}
}