{
  "_format": "hh-sol-artifact-1",
  "contractName": "DeReport",
  "sourceName": "contracts/DeReport.sol",
  "abi": [
    {
      "inputs": [],
      "stateMutability": "nonpayable",
      "type": "constructor"
    },
    {
      "anonymous": false,
      "inputs": [
        {
          "indexed": true,
          "internalType": "address",
          "name": "owner",
          "type": "address"
        },
        {
          "indexed": true,
          "internalType": "address",
          "name": "approved",
          "type": "address"
        },
        {
          "indexed": true,
          "internalType": "uint256",
          "name": "tokenId",
          "type": "uint256"
        }
      ],
      "name": "Approval",
      "type": "event"
    },
    {
      "anonymous": false,
      "inputs": [
        {
          "indexed": true,
          "internalType": "address",
          "name": "owner",
          "type": "address"
        },
        {
          "indexed": true,
          "internalType": "address",
          "name": "operator",
          "type": "address"
        },
        {
          "indexed": false,
          "internalType": "bool",
          "name": "approved",
          "type": "bool"
        }
      ],
      "name": "ApprovalForAll",
      "type": "event"
    },
    {
      "anonymous": false,
      "inputs": [
        {
          "indexed": true,
          "internalType": "address",
          "name": "previousOwner",
          "type": "address"
        },
        {
          "indexed": true,
          "internalType": "address",
          "name": "newOwner",
          "type": "address"
        }
      ],
      "name": "OwnershipTransferred",
      "type": "event"
    },
    {
      "anonymous": false,
      "inputs": [
        {
          "indexed": true,
          "internalType": "address",
          "name": "from",
          "type": "address"
        },
        {
          "indexed": true,
          "internalType": "address",
          "name": "to",
          "type": "address"
        },
        {
          "indexed": true,
          "internalType": "uint256",
          "name": "tokenId",
          "type": "uint256"
        }
      ],
      "name": "Transfer",
      "type": "event"
    },
    {
      "inputs": [
        {
          "internalType": "address",
          "name": "to",
          "type": "address"
        },
        {
          "internalType": "uint256",
          "name": "tokenId",
          "type": "uint256"
        }
      ],
      "name": "approve",
      "outputs": [],
      "stateMutability": "nonpayable",
      "type": "function"
    },
    {
      "inputs": [
        {
          "internalType": "address",
          "name": "owner",
          "type": "address"
        }
      ],
      "name": "balanceOf",
      "outputs": [
        {
          "internalType": "uint256",
          "name": "",
          "type": "uint256"
        }
      ],
      "stateMutability": "view",
      "type": "function"
    },
    {
      "inputs": [
        {
          "internalType": "uint256",
          "name": "tokenId",
          "type": "uint256"
        }
      ],
      "name": "getApproved",
      "outputs": [
        {
          "internalType": "address",
          "name": "",
          "type": "address"
        }
      ],
      "stateMutability": "view",
      "type": "function"
    },
    {
      "inputs": [
        {
          "internalType": "address",
          "name": "owner",
          "type": "address"
        },
        {
          "internalType": "address",
          "name": "operator",
          "type": "address"
        }
      ],
      "name": "isApprovedForAll",
      "outputs": [
        {
          "internalType": "bool",
          "name": "",
          "type": "bool"
        }
      ],
      "stateMutability": "view",
      "type": "function"
    },
    {
      "inputs": [],
      "name": "name",
      "outputs": [
        {
          "internalType": "string",
          "name": "",
          "type": "string"
        }
      ],
      "stateMutability": "view",
      "type": "function"
    },
    {
      "inputs": [],
      "name": "owner",
      "outputs": [
        {
          "internalType": "address",
          "name": "",
          "type": "address"
        }
      ],
      "stateMutability": "view",
      "type": "function"
    },
    {
      "inputs": [
        {
          "internalType": "uint256",
          "name": "tokenId",
          "type": "uint256"
        }
      ],
      "name": "ownerOf",
      "outputs": [
        {
          "internalType": "address",
          "name": "",
          "type": "address"
        }
      ],
      "stateMutability": "view",
      "type": "function"
    },
    {
      "inputs": [],
      "name": "renounceOwnership",
      "outputs": [],
      "stateMutability": "nonpayable",
      "type": "function"
    },
    {
      "inputs": [
        {
          "internalType": "address",
          "name": "to",
          "type": "address"
        },
        {
          "internalType": "uint256",
          "name": "tokenId",
          "type": "uint256"
        },
        {
          "internalType": "string",
          "name": "uri",
          "type": "string"
        }
      ],
      "name": "safeMint",
      "outputs": [],
      "stateMutability": "nonpayable",
      "type": "function"
    },
    {
      "inputs": [
        {
          "internalType": "address",
          "name": "from",
          "type": "address"
        },
        {
          "internalType": "address",
          "name": "to",
          "type": "address"
        },
        {
          "internalType": "uint256",
          "name": "tokenId",
          "type": "uint256"
        }
      ],
      "name": "safeTransferFrom",
      "outputs": [],
      "stateMutability": "nonpayable",
      "type": "function"
    },
    {
      "inputs": [
        {
          "internalType": "address",
          "name": "from",
          "type": "address"
        },
        {
          "internalType": "address",
          "name": "to",
          "type": "address"
        },
        {
          "internalType": "uint256",
          "name": "tokenId",
          "type": "uint256"
        },
        {
          "internalType": "bytes",
          "name": "_data",
          "type": "bytes"
        }
      ],
      "name": "safeTransferFrom",
      "outputs": [],
      "stateMutability": "nonpayable",
      "type": "function"
    },
    {
      "inputs": [
        {
          "internalType": "address",
          "name": "operator",
          "type": "address"
        },
        {
          "internalType": "bool",
          "name": "approved",
          "type": "bool"
        }
      ],
      "name": "setApprovalForAll",
      "outputs": [],
      "stateMutability": "nonpayable",
      "type": "function"
    },
    {
      "inputs": [
        {
          "internalType": "bytes4",
          "name": "interfaceId",
          "type": "bytes4"
        }
      ],
      "name": "supportsInterface",
      "outputs": [
        {
          "internalType": "bool",
          "name": "",
          "type": "bool"
        }
      ],
      "stateMutability": "view",
      "type": "function"
    },
    {
      "inputs": [],
      "name": "symbol",
      "outputs": [
        {
          "internalType": "string",
          "name": "",
          "type": "string"
        }
      ],
      "stateMutability": "view",
      "type": "function"
    },
    {
      "inputs": [
        {
          "internalType": "uint256",
          "name": "index",
          "type": "uint256"
        }
      ],
      "name": "tokenByIndex",
      "outputs": [
        {
          "internalType": "uint256",
          "name": "",
          "type": "uint256"
        }
      ],
      "stateMutability": "view",
      "type": "function"
    },
    {
      "inputs": [
        {
          "internalType": "address",
          "name": "owner",
          "type": "address"
        },
        {
          "internalType": "uint256",
          "name": "index",
          "type": "uint256"
        }
      ],
      "name": "tokenOfOwnerByIndex",
      "outputs": [
        {
          "internalType": "uint256",
          "name": "",
          "type": "uint256"
        }
      ],
      "stateMutability": "view",
      "type": "function"
    },
    {
      "inputs": [
        {
          "internalType": "uint256",
          "name": "tokenId",
          "type": "uint256"
        }
      ],
      "name": "tokenURI",
      "outputs": [
        {
          "internalType": "string",
          "name": "",
          "type": "string"
        }
      ],
      "stateMutability": "view",
      "type": "function"
    },
    {
      "inputs": [],
      "name": "totalSupply",
      "outputs": [
        {
          "internalType": "uint256",
          "name": "",
          "type": "uint256"
        }
      ],
      "stateMutability": "view",
      "type": "function"
    },
    {
      "inputs": [
        {
          "internalType": "address",
          "name": "from",
          "type": "address"
        },
        {
          "internalType": "address",
          "name": "to",
          "type": "address"
        },
        {
          "internalType": "uint256",
          "name": "tokenId",
          "type": "uint256"
        }
      ],
      "name": "transferFrom",
      "outputs": [],
      "stateMutability": "nonpayable",
      "type": "function"
    },
    {
      "inputs": [
        {
          "internalType": "address",
          "name": "newOwner",
          "type": "address"
        }
      ],
      "name": "transferOwnership",
      "outputs": [],
      "stateMutability": "nonpayable",
      "type": "function"
    }
  ],
  "bytecode": "0x60806040523480156200001157600080fd5b506040805180820182526008815267111954995c1bdc9d60c21b6020808301918252835180850190945260048452631114149560e21b9084015281519192916200005e91600091620000ed565b50805162000074906001906020840190620000ed565b505050620000916200008b6200009760201b60201c565b6200009b565b620001d0565b3390565b600b80546001600160a01b038381166001600160a01b0319831681179093556040519116919082907f8be0079c531659141344cd1fd0a4f28419497f9722a3daafe3b4186f6b6457e090600090a35050565b828054620000fb9062000193565b90600052602060002090601f0160209004810192826200011f57600085556200016a565b82601f106200013a57805160ff19168380011785556200016a565b828001600101855582156200016a579182015b828111156200016a5782518255916020019190600101906200014d565b50620001789291506200017c565b5090565b5b808211156200017857600081556001016200017d565b600181811c90821680620001a857607f821691505b60208210811415620001ca57634e487b7160e01b600052602260045260246000fd5b50919050565b611d2880620001e06000396000f3fe608060405234801561001057600080fd5b506004361061012c5760003560e01c806370a08231116100ad578063b88d4fde11610071578063b88d4fde14610266578063c87b56dd14610279578063cd279c7c1461028c578063e985e9c51461029f578063f2fde38b146102db57600080fd5b806370a082311461021f578063715018a6146102325780638da5cb5b1461023a57806395d89b411461024b578063a22cb4651461025357600080fd5b806323b872dd116100f457806323b872dd146101c05780632f745c59146101d357806342842e0e146101e65780634f6ccce7146101f95780636352211e1461020c57600080fd5b806301ffc9a71461013157806306fdde0314610159578063081812fc1461016e578063095ea7b31461019957806318160ddd146101ae575b600080fd5b61014461013f3660046117a1565b6102ee565b60405190151581526020015b60405180910390f35b6101616102ff565b6040516101509190611816565b61018161017c366004611829565b610391565b6040516001600160a01b039091168152602001610150565b6101ac6101a736600461185e565b61041e565b005b6008545b604051908152602001610150565b6101ac6101ce366004611888565b610534565b6101b26101e136600461185e565b610565565b6101ac6101f4366004611888565b6105fb565b6101b2610207366004611829565b610616565b61018161021a366004611829565b6106a9565b6101b261022d3660046118c4565b610720565b6101ac6107a7565b600b546001600160a01b0316610181565b61016161080d565b6101ac6102613660046118df565b61081c565b6101ac6102743660046119a7565b61082b565b610161610287366004611829565b610863565b6101ac61029a366004611a23565b61086e565b6101446102ad366004611a8e565b6001600160a01b03918216600090815260056020908152604080832093909416825291909152205460ff1690565b6101ac6102e93660046118c4565b610882565b60006102f98261094d565b92915050565b60606000805461030e90611ac1565b80601f016020809104026020016040519081016040528092919081815260200182805461033a90611ac1565b80156103875780601f1061035c57610100808354040283529160200191610387565b820191906000526020600020905b81548152906001019060200180831161036a57829003601f168201915b5050505050905090565b600061039c82610972565b6104025760405162461bcd60e51b815260206004820152602c60248201527f4552433732313a20617070726f76656420717565727920666f72206e6f6e657860448201526b34b9ba32b73a103a37b5b2b760a11b60648201526084015b60405180910390fd5b506000908152600460205260409020546001600160a01b031690565b6000610429826106a9565b9050806001600160a01b0316836001600160a01b031614156104975760405162461bcd60e51b815260206004820152602160248201527f4552433732313a20617070726f76616c20746f2063757272656e74206f776e656044820152603960f91b60648201526084016103f9565b336001600160a01b03821614806104b357506104b381336102ad565b6105255760405162461bcd60e51b815260206004820152603860248201527f4552433732313a20617070726f76652063616c6c6572206973206e6f74206f7760448201527f6e6572206e6f7220617070726f76656420666f7220616c6c000000000000000060648201526084016103f9565b61052f838361098f565b505050565b61053e33826109fd565b61055a5760405162461bcd60e51b81526004016103f990611afc565b61052f838383610ae7565b600061057083610720565b82106105d25760405162461bcd60e51b815260206004820152602b60248201527f455243373231456e756d657261626c653a206f776e657220696e646578206f7560448201526a74206f6620626f756e647360a81b60648201526084016103f9565b506001600160a01b03919091166000908152600660209081526040808320938352929052205490565b61052f8383836040518060200160405280600081525061082b565b600061062160085490565b82106106845760405162461bcd60e51b815260206004820152602c60248201527f455243373231456e756d657261626c653a20676c6f62616c20696e646578206f60448201526b7574206f6620626f756e647360a01b60648201526084016103f9565b6008828154811061069757610697611b4d565b90600052602060002001549050919050565b6000818152600260205260408120546001600160a01b0316806102f95760405162461bcd60e51b815260206004820152602960248201527f4552433732313a206f776e657220717565727920666f72206e6f6e657869737460448201526832b73a103a37b5b2b760b91b60648201526084016103f9565b60006001600160a01b03821661078b5760405162461bcd60e51b815260206004820152602a60248201527f4552433732313a2062616c616e636520717565727920666f7220746865207a65604482015269726f206164647265737360b01b60648201526084016103f9565b506001600160a01b031660009081526003602052604090205490565b600b546001600160a01b031633146108015760405162461bcd60e51b815260206004820181905260248201527f4f776e61626c653a2063616c6c6572206973206e6f7420746865206f776e657260448201526064016103f9565b61080b6000610c92565b565b60606001805461030e90611ac1565b610827338383610ce4565b5050565b61083533836109fd565b6108515760405162461bcd60e51b81526004016103f990611afc565b61085d84848484610db3565b50505050565b60606102f982610de6565b6108788383610f55565b61052f8282610f6f565b600b546001600160a01b031633146108dc5760405162461bcd60e51b815260206004820181905260248201527f4f776e61626c653a2063616c6c6572206973206e6f7420746865206f776e657260448201526064016103f9565b6001600160a01b0381166109415760405162461bcd60e51b815260206004820152602660248201527f4f776e61626c653a206e6577206f776e657220697320746865207a65726f206160448201526564647265737360d01b60648201526084016103f9565b61094a81610c92565b50565b60006001600160e01b0319821663780e9d6360e01b14806102f957506102f982610ffa565b6000908152600260205260409020546001600160a01b0316151590565b600081815260046020526040902080546001600160a01b0319166001600160a01b03841690811790915581906109c4826106a9565b6001600160a01b03167f8c5be1e5ebec7d5bd14f71427d1e84f3dd0314c0f7b2291e5b200ac8c7c3b92560405160405180910390a45050565b6000610a0882610972565b610a695760405162461bcd60e51b815260206004820152602c60248201527f4552433732313a206f70657261746f7220717565727920666f72206e6f6e657860448201526b34b9ba32b73a103a37b5b2b760a11b60648201526084016103f9565b6000610a74836106a9565b9050806001600160a01b0316846001600160a01b03161480610aaf5750836001600160a01b0316610aa484610391565b6001600160a01b0316145b80610adf57506001600160a01b0380821660009081526005602090815260408083209388168352929052205460ff165b949350505050565b826001600160a01b0316610afa826106a9565b6001600160a01b031614610b625760405162461bcd60e51b815260206004820152602960248201527f4552433732313a207472616e73666572206f6620746f6b656e2074686174206960448201526839903737ba1037bbb760b91b60648201526084016103f9565b6001600160a01b038216610bc45760405162461bcd60e51b8152602060048201526024808201527f4552433732313a207472616e7366657220746f20746865207a65726f206164646044820152637265737360e01b60648201526084016103f9565b610bcf83838361104a565b610bda60008261098f565b6001600160a01b0383166000908152600360205260408120805460019290610c03908490611b79565b90915550506001600160a01b0382166000908152600360205260408120805460019290610c31908490611b90565b909155505060008181526002602052604080822080546001600160a01b0319166001600160a01b0386811691821790925591518493918716917fddf252ad1be2c89b69c2b068fc378daa952ba7f163c4a11628f55a4df523b3ef91a4505050565b600b80546001600160a01b038381166001600160a01b0319831681179093556040519116919082907f8be0079c531659141344cd1fd0a4f28419497f9722a3daafe3b4186f6b6457e090600090a35050565b816001600160a01b0316836001600160a01b03161415610d465760405162461bcd60e51b815260206004820152601960248201527f4552433732313a20617070726f766520746f2063616c6c65720000000000000060448201526064016103f9565b6001600160a01b03838116600081815260056020908152604080832094871680845294825291829020805460ff191686151590811790915591519182527f17307eab39ab6107e8899845ad3d59bd9653f200f220920489ca2b5937696c31910160405180910390a3505050565b610dbe848484610ae7565b610dca84848484611055565b61085d5760405162461bcd60e51b81526004016103f990611ba8565b6060610df182610972565b610e575760405162461bcd60e51b815260206004820152603160248201527f45524337323155524953746f726167653a2055524920717565727920666f72206044820152703737b732bc34b9ba32b73a103a37b5b2b760791b60648201526084016103f9565b6000828152600a602052604081208054610e7090611ac1565b80601f0160208091040260200160405190810160405280929190818152602001828054610e9c90611ac1565b8015610ee95780601f10610ebe57610100808354040283529160200191610ee9565b820191906000526020600020905b815481529060010190602001808311610ecc57829003601f168201915b505050505090506000610f0760408051602081019091526000815290565b9050805160001415610f1a575092915050565b815115610f4c578082604051602001610f34929190611bfa565b60405160208183030381529060405292505050919050565b610adf84611162565b61082782826040518060200160405280600081525061123a565b610f7882610972565b610fdb5760405162461bcd60e51b815260206004820152602e60248201527f45524337323155524953746f726167653a2055524920736574206f66206e6f6e60448201526d32bc34b9ba32b73a103a37b5b2b760911b60648201526084016103f9565b6000828152600a60209081526040909120825161052f928401906116f2565b60006001600160e01b031982166380ac58cd60e01b148061102b57506001600160e01b03198216635b5e139f60e01b145b806102f957506301ffc9a760e01b6001600160e01b03198316146102f9565b61052f83838361126d565b60006001600160a01b0384163b1561115757604051630a85bd0160e11b81526001600160a01b0385169063150b7a0290611099903390899088908890600401611c29565b602060405180830381600087803b1580156110b357600080fd5b505af19250505080156110e3575060408051601f3d908101601f191682019092526110e091810190611c66565b60015b61113d573d808015611111576040519150601f19603f3d011682016040523d82523d6000602084013e611116565b606091505b5080516111355760405162461bcd60e51b81526004016103f990611ba8565b805181602001fd5b6001600160e01b031916630a85bd0160e11b149050610adf565b506001949350505050565b606061116d82610972565b6111d15760405162461bcd60e51b815260206004820152602f60248201527f4552433732314d657461646174613a2055524920717565727920666f72206e6f60448201526e3732bc34b9ba32b73a103a37b5b2b760891b60648201526084016103f9565b60006111e860408051602081019091526000815290565b905060008151116112085760405180602001604052806000815250611233565b8061121284611325565b604051602001611223929190611bfa565b6040516020818303038152906040525b9392505050565b6112448383611423565b6112516000848484611055565b61052f5760405162461bcd60e51b81526004016103f990611ba8565b6001600160a01b0383166112c8576112c381600880546000838152600960205260408120829055600182018355919091527ff3f7a9fe364faab93b216da50a3214154f22a0a2b415b23a84c8169e8b636ee30155565b6112eb565b816001600160a01b0316836001600160a01b0316146112eb576112eb8382611562565b6001600160a01b0382166113025761052f816115ff565b826001600160a01b0316826001600160a01b03161461052f5761052f82826116ae565b6060816113495750506040805180820190915260018152600360fc1b602082015290565b8160005b8115611373578061135d81611c83565b915061136c9050600a83611cb4565b915061134d565b60008167ffffffffffffffff81111561138e5761138e61191b565b6040519080825280601f01601f1916602001820160405280156113b8576020820181803683370190505b5090505b8415610adf576113cd600183611b79565b91506113da600a86611cc8565b6113e5906030611b90565b60f81b8183815181106113fa576113fa611b4d565b60200101906001600160f81b031916908160001a90535061141c600a86611cb4565b94506113bc565b6001600160a01b0382166114795760405162461bcd60e51b815260206004820181905260248201527f4552433732313a206d696e7420746f20746865207a65726f206164647265737360448201526064016103f9565b61148281610972565b156114cf5760405162461bcd60e51b815260206004820152601c60248201527f4552433732313a20746f6b656e20616c7265616479206d696e7465640000000060448201526064016103f9565b6114db6000838361104a565b6001600160a01b0382166000908152600360205260408120805460019290611504908490611b90565b909155505060008181526002602052604080822080546001600160a01b0319166001600160a01b03861690811790915590518392907fddf252ad1be2c89b69c2b068fc378daa952ba7f163c4a11628f55a4df523b3ef908290a45050565b6000600161156f84610720565b6115799190611b79565b6000838152600760205260409020549091508082146115cc576001600160a01b03841660009081526006602090815260408083208584528252808320548484528184208190558352600790915290208190555b5060009182526007602090815260408084208490556001600160a01b039094168352600681528383209183525290812055565b60085460009061161190600190611b79565b6000838152600960205260408120546008805493945090928490811061163957611639611b4d565b90600052602060002001549050806008838154811061165a5761165a611b4d565b600091825260208083209091019290925582815260099091526040808220849055858252812055600880548061169257611692611cdc565b6001900381819060005260206000200160009055905550505050565b60006116b983610720565b6001600160a01b039093166000908152600660209081526040808320868452825280832085905593825260079052919091209190915550565b8280546116fe90611ac1565b90600052602060002090601f0160209004810192826117205760008555611766565b82601f1061173957805160ff1916838001178555611766565b82800160010185558215611766579182015b8281111561176657825182559160200191906001019061174b565b50611772929150611776565b5090565b5b808211156117725760008155600101611777565b6001600160e01b03198116811461094a57600080fd5b6000602082840312156117b357600080fd5b81356112338161178b565b60005b838110156117d95781810151838201526020016117c1565b8381111561085d5750506000910152565b600081518084526118028160208601602086016117be565b601f01601f19169290920160200192915050565b60208152600061123360208301846117ea565b60006020828403121561183b57600080fd5b5035919050565b80356001600160a01b038116811461185957600080fd5b919050565b6000806040838503121561187157600080fd5b61187a83611842565b946020939093013593505050565b60008060006060848603121561189d57600080fd5b6118a684611842565b92506118b460208501611842565b9150604084013590509250925092565b6000602082840312156118d657600080fd5b61123382611842565b600080604083850312156118f257600080fd5b6118fb83611842565b91506020830135801515811461191057600080fd5b809150509250929050565b634e487b7160e01b600052604160045260246000fd5b600067ffffffffffffffff8084111561194c5761194c61191b565b604051601f8501601f19908116603f011681019082821181831017156119745761197461191b565b8160405280935085815286868601111561198d57600080fd5b858560208301376000602087830101525050509392505050565b600080600080608085870312156119bd57600080fd5b6119c685611842565b93506119d460208601611842565b925060408501359150606085013567ffffffffffffffff8111156119f757600080fd5b8501601f81018713611a0857600080fd5b611a1787823560208401611931565b91505092959194509250565b600080600060608486031215611a3857600080fd5b611a4184611842565b925060208401359150604084013567ffffffffffffffff811115611a6457600080fd5b8401601f81018613611a7557600080fd5b611a8486823560208401611931565b9150509250925092565b60008060408385031215611aa157600080fd5b611aaa83611842565b9150611ab860208401611842565b90509250929050565b600181811c90821680611ad557607f821691505b60208210811415611af657634e487b7160e01b600052602260045260246000fd5b50919050565b60208082526031908201527f4552433732313a207472616e736665722063616c6c6572206973206e6f74206f6040820152701ddb995c881b9bdc88185c1c1c9bdd9959607a1b606082015260800190565b634e487b7160e01b600052603260045260246000fd5b634e487b7160e01b600052601160045260246000fd5b600082821015611b8b57611b8b611b63565b500390565b60008219821115611ba357611ba3611b63565b500190565b60208082526032908201527f4552433732313a207472616e7366657220746f206e6f6e20455243373231526560408201527131b2b4bb32b91034b6b83632b6b2b73a32b960711b606082015260800190565b60008351611c0c8184602088016117be565b835190830190611c208183602088016117be565b01949350505050565b6001600160a01b0385811682528416602082015260408101839052608060608201819052600090611c5c908301846117ea565b9695505050505050565b600060208284031215611c7857600080fd5b81516112338161178b565b6000600019821415611c9757611c97611b63565b5060010190565b634e487b7160e01b600052601260045260246000fd5b600082611cc357611cc3611c9e565b500490565b600082611cd757611cd7611c9e565b500690565b634e487b7160e01b600052603160045260246000fdfea2646970667358221220894a2d616dd349e3f72c24d562c2a50e4f142cb9fae188915791643cfaeab03064736f6c63430008090033",
  "linkReferences": {},
  "deployedLinkReferences": {}
}