{
  "_format": "hh-sol-artifact-1",
  "contractName": "NFTMarket",
  "sourceName": "contracts/NFTMarket.sol",
  "abi": [
    {
      "inputs": [],
      "stateMutability": "nonpayable",
      "type": "constructor"
    },
    {
      "anonymous": false,
      "inputs": [
        {
          "indexed": true,
          "internalType": "address",
          "name": "owner",
          "type": "address"
        },
        {
          "indexed": true,
          "internalType": "address",
          "name": "approved",
          "type": "address"
        },
        {
          "indexed": true,
          "internalType": "uint256",
          "name": "tokenId",
          "type": "uint256"
        }
      ],
      "name": "Approval",
      "type": "event"
    },
    {
      "anonymous": false,
      "inputs": [
        {
          "indexed": true,
          "internalType": "address",
          "name": "owner",
          "type": "address"
        },
        {
          "indexed": true,
          "internalType": "address",
          "name": "operator",
          "type": "address"
        },
        {
          "indexed": false,
          "internalType": "bool",
          "name": "approved",
          "type": "bool"
        }
      ],
      "name": "ApprovalForAll",
      "type": "event"
    },
    {
      "anonymous": false,
      "inputs": [
        {
          "indexed": false,
          "internalType": "uint256",
          "name": "tokenID",
          "type": "uint256"
        },
        {
          "indexed": false,
          "internalType": "address",
          "name": "from",
          "type": "address"
        },
        {
          "indexed": false,
          "internalType": "address",
          "name": "to",
          "type": "address"
        },
        {
          "indexed": false,
          "internalType": "string",
          "name": "tokenURI",
          "type": "string"
        },
        {
          "indexed": false,
          "internalType": "uint256",
          "name": "price",
          "type": "uint256"
        }
      ],
      "name": "NFTTransfer",
      "type": "event"
    },
    {
      "anonymous": false,
      "inputs": [
        {
          "indexed": true,
          "internalType": "address",
          "name": "previousOwner",
          "type": "address"
        },
        {
          "indexed": true,
          "internalType": "address",
          "name": "newOwner",
          "type": "address"
        }
      ],
      "name": "OwnershipTransferred",
      "type": "event"
    },
    {
      "anonymous": false,
      "inputs": [
        {
          "indexed": true,
          "internalType": "address",
          "name": "from",
          "type": "address"
        },
        {
          "indexed": true,
          "internalType": "address",
          "name": "to",
          "type": "address"
        },
        {
          "indexed": true,
          "internalType": "uint256",
          "name": "tokenId",
          "type": "uint256"
        }
      ],
      "name": "Transfer",
      "type": "event"
    },
    {
      "inputs": [
        {
          "internalType": "address",
          "name": "to",
          "type": "address"
        },
        {
          "internalType": "uint256",
          "name": "tokenId",
          "type": "uint256"
        }
      ],
      "name": "approve",
      "outputs": [],
      "stateMutability": "nonpayable",
      "type": "function"
    },
    {
      "inputs": [
        {
          "internalType": "address",
          "name": "owner",
          "type": "address"
        }
      ],
      "name": "balanceOf",
      "outputs": [
        {
          "internalType": "uint256",
          "name": "",
          "type": "uint256"
        }
      ],
      "stateMutability": "view",
      "type": "function"
    },
    {
      "inputs": [
        {
          "internalType": "uint256",
          "name": "tokenID",
          "type": "uint256"
        }
      ],
      "name": "buyNFT",
      "outputs": [],
      "stateMutability": "payable",
      "type": "function"
    },
    {
      "inputs": [
        {
          "internalType": "uint256",
          "name": "tokenID",
          "type": "uint256"
        }
      ],
      "name": "cancelListing",
      "outputs": [],
      "stateMutability": "nonpayable",
      "type": "function"
    },
    {
      "inputs": [
        {
          "internalType": "string",
          "name": "tokenURI",
          "type": "string"
        }
      ],
      "name": "createNFT",
      "outputs": [],
      "stateMutability": "nonpayable",
      "type": "function"
    },
    {
      "inputs": [
        {
          "internalType": "uint256",
          "name": "tokenId",
          "type": "uint256"
        }
      ],
      "name": "getApproved",
      "outputs": [
        {
          "internalType": "address",
          "name": "",
          "type": "address"
        }
      ],
      "stateMutability": "view",
      "type": "function"
    },
    {
      "inputs": [
        {
          "internalType": "address",
          "name": "owner",
          "type": "address"
        },
        {
          "internalType": "address",
          "name": "operator",
          "type": "address"
        }
      ],
      "name": "isApprovedForAll",
      "outputs": [
        {
          "internalType": "bool",
          "name": "",
          "type": "bool"
        }
      ],
      "stateMutability": "view",
      "type": "function"
    },
    {
      "inputs": [
        {
          "internalType": "uint256",
          "name": "tokenID",
          "type": "uint256"
        },
        {
          "internalType": "uint256",
          "name": "price",
          "type": "uint256"
        }
      ],
      "name": "listNFT",
      "outputs": [],
      "stateMutability": "nonpayable",
      "type": "function"
    },
    {
      "inputs": [],
      "name": "name",
      "outputs": [
        {
          "internalType": "string",
          "name": "",
          "type": "string"
        }
      ],
      "stateMutability": "view",
      "type": "function"
    },
    {
      "inputs": [],
      "name": "owner",
      "outputs": [
        {
          "internalType": "address",
          "name": "",
          "type": "address"
        }
      ],
      "stateMutability": "view",
      "type": "function"
    },
    {
      "inputs": [
        {
          "internalType": "uint256",
          "name": "tokenId",
          "type": "uint256"
        }
      ],
      "name": "ownerOf",
      "outputs": [
        {
          "internalType": "address",
          "name": "",
          "type": "address"
        }
      ],
      "stateMutability": "view",
      "type": "function"
    },
    {
      "inputs": [],
      "name": "renounceOwnership",
      "outputs": [],
      "stateMutability": "nonpayable",
      "type": "function"
    },
    {
      "inputs": [
        {
          "internalType": "address",
          "name": "from",
          "type": "address"
        },
        {
          "internalType": "address",
          "name": "to",
          "type": "address"
        },
        {
          "internalType": "uint256",
          "name": "tokenId",
          "type": "uint256"
        }
      ],
      "name": "safeTransferFrom",
      "outputs": [],
      "stateMutability": "nonpayable",
      "type": "function"
    },
    {
      "inputs": [
        {
          "internalType": "address",
          "name": "from",
          "type": "address"
        },
        {
          "internalType": "address",
          "name": "to",
          "type": "address"
        },
        {
          "internalType": "uint256",
          "name": "tokenId",
          "type": "uint256"
        },
        {
          "internalType": "bytes",
          "name": "_data",
          "type": "bytes"
        }
      ],
      "name": "safeTransferFrom",
      "outputs": [],
      "stateMutability": "nonpayable",
      "type": "function"
    },
    {
      "inputs": [
        {
          "internalType": "address",
          "name": "operator",
          "type": "address"
        },
        {
          "internalType": "bool",
          "name": "approved",
          "type": "bool"
        }
      ],
      "name": "setApprovalForAll",
      "outputs": [],
      "stateMutability": "nonpayable",
      "type": "function"
    },
    {
      "inputs": [
        {
          "internalType": "bytes4",
          "name": "interfaceId",
          "type": "bytes4"
        }
      ],
      "name": "supportsInterface",
      "outputs": [
        {
          "internalType": "bool",
          "name": "",
          "type": "bool"
        }
      ],
      "stateMutability": "view",
      "type": "function"
    },
    {
      "inputs": [],
      "name": "symbol",
      "outputs": [
        {
          "internalType": "string",
          "name": "",
          "type": "string"
        }
      ],
      "stateMutability": "view",
      "type": "function"
    },
    {
      "inputs": [
        {
          "internalType": "uint256",
          "name": "tokenId",
          "type": "uint256"
        }
      ],
      "name": "tokenURI",
      "outputs": [
        {
          "internalType": "string",
          "name": "",
          "type": "string"
        }
      ],
      "stateMutability": "view",
      "type": "function"
    },
    {
      "inputs": [
        {
          "internalType": "address",
          "name": "from",
          "type": "address"
        },
        {
          "internalType": "address",
          "name": "to",
          "type": "address"
        },
        {
          "internalType": "uint256",
          "name": "tokenId",
          "type": "uint256"
        }
      ],
      "name": "transferFrom",
      "outputs": [],
      "stateMutability": "nonpayable",
      "type": "function"
    },
    {
      "inputs": [
        {
          "internalType": "address",
          "name": "newOwner",
          "type": "address"
        }
      ],
      "name": "transferOwnership",
      "outputs": [],
      "stateMutability": "nonpayable",
      "type": "function"
    },
    {
      "inputs": [],
      "name": "withdrawFunds",
      "outputs": [],
      "stateMutability": "nonpayable",
      "type": "function"
    }
  ],
  "bytecode": "0x60806040523480156200001157600080fd5b50604080518082018252600981526844655265706f72747360b81b602080830191825283518085019094526005845264445250545360d81b9084015281519192916200006091600091620000ef565b50805162000076906001906020840190620000ef565b505050620000936200008d6200009960201b60201c565b6200009d565b620001d2565b3390565b600780546001600160a01b038381166001600160a01b0319831681179093556040519116919082907f8be0079c531659141344cd1fd0a4f28419497f9722a3daafe3b4186f6b6457e090600090a35050565b828054620000fd9062000195565b90600052602060002090601f0160209004810192826200012157600085556200016c565b82601f106200013c57805160ff19168380011785556200016c565b828001600101855582156200016c579182015b828111156200016c5782518255916020019190600101906200014f565b506200017a9291506200017e565b5090565b5b808211156200017a57600081556001016200017f565b600181811c90821680620001aa57607f821691505b60208210811415620001cc57634e487b7160e01b600052602260045260246000fd5b50919050565b61208980620001e26000396000f3fe60806040526004361061012a5760003560e01c806370a08231116100ab578063a22cb4651161006f578063a22cb4651461031e578063b88d4fde1461033e578063c87b56dd1461035e578063da2ed03e1461037e578063e985e9c51461039e578063f2fde38b146103e757600080fd5b806370a0823114610288578063715018a6146102b65780638da5cb5b146102cb57806394383f14146102e957806395d89b411461030957600080fd5b806324600fc3116100f257806324600fc314610200578063305a67a81461021557806342842e0e1461023557806351ed8288146102555780636352211e1461026857600080fd5b806301ffc9a71461012f57806306fdde0314610164578063081812fc14610186578063095ea7b3146101be57806323b872dd146101e0575b600080fd5b34801561013b57600080fd5b5061014f61014a3660046119c1565b610407565b60405190151581526020015b60405180910390f35b34801561017057600080fd5b50610179610459565b60405161015b9190611a36565b34801561019257600080fd5b506101a66101a1366004611a49565b6104eb565b6040516001600160a01b03909116815260200161015b565b3480156101ca57600080fd5b506101de6101d9366004611a7e565b610578565b005b3480156101ec57600080fd5b506101de6101fb366004611aa8565b61068e565b34801561020c57600080fd5b506101de6106bf565b34801561022157600080fd5b506101de610230366004611a49565b610775565b34801561024157600080fd5b506101de610250366004611aa8565b6108cf565b6101de610263366004611a49565b6108ea565b34801561027457600080fd5b506101a6610283366004611a49565b610a8c565b34801561029457600080fd5b506102a86102a3366004611ae4565b610b03565b60405190815260200161015b565b3480156102c257600080fd5b506101de610b8a565b3480156102d757600080fd5b506007546001600160a01b03166101a6565b3480156102f557600080fd5b506101de610304366004611aff565b610bc0565b34801561031557600080fd5b50610179610ca2565b34801561032a57600080fd5b506101de610339366004611b21565b610cb1565b34801561034a57600080fd5b506101de610359366004611b73565b610cbc565b34801561036a57600080fd5b50610179610379366004611a49565b610cf4565b34801561038a57600080fd5b506101de610399366004611c4f565b610e6b565b3480156103aa57600080fd5b5061014f6103b9366004611cc1565b6001600160a01b03918216600090815260056020908152604080832093909416825291909152205460ff1690565b3480156103f357600080fd5b506101de610402366004611ae4565b610f06565b60006001600160e01b031982166380ac58cd60e01b148061043857506001600160e01b03198216635b5e139f60e01b145b8061045357506301ffc9a760e01b6001600160e01b03198316145b92915050565b60606000805461046890611cf4565b80601f016020809104026020016040519081016040528092919081815260200182805461049490611cf4565b80156104e15780601f106104b6576101008083540402835291602001916104e1565b820191906000526020600020905b8154815290600101906020018083116104c457829003601f168201915b5050505050905090565b60006104f682610fa1565b61055c5760405162461bcd60e51b815260206004820152602c60248201527f4552433732313a20617070726f76656420717565727920666f72206e6f6e657860448201526b34b9ba32b73a103a37b5b2b760a11b60648201526084015b60405180910390fd5b506000908152600460205260409020546001600160a01b031690565b600061058382610a8c565b9050806001600160a01b0316836001600160a01b031614156105f15760405162461bcd60e51b815260206004820152602160248201527f4552433732313a20617070726f76616c20746f2063757272656e74206f776e656044820152603960f91b6064820152608401610553565b336001600160a01b038216148061060d575061060d81336103b9565b61067f5760405162461bcd60e51b815260206004820152603860248201527f4552433732313a20617070726f76652063616c6c6572206973206e6f74206f7760448201527f6e6572206e6f7220617070726f76656420666f7220616c6c00000000000000006064820152608401610553565b6106898383610fbe565b505050565b610698338261102c565b6106b45760405162461bcd60e51b815260040161055390611d2f565b610689838383611112565b6007546001600160a01b031633146106e95760405162461bcd60e51b815260040161055390611d80565b47806107375760405162461bcd60e51b815260206004820152601a60248201527f4e46544d61726b65743a2062616c616e6365206973207a65726f0000000000006044820152606401610553565b6007546040516001600160a01b039091169082156108fc029083906000818181858888f19350505050158015610771573d6000803e3d6000fd5b5050565b600081815260096020908152604091829020825180840190935280548084526001909101546001600160a01b0316918301919091526107c65760405162461bcd60e51b815260040161055390611db5565b60208101516001600160a01b031633146108225760405162461bcd60e51b815260206004820181905260248201527f4e46544d61726b65743a20796f7520617265206e6f7420746865206f776e65726044820152606401610553565b6040516323b872dd60e01b8152306004820181905233602483015260448201849052906323b872dd90606401600060405180830381600087803b15801561086857600080fd5b505af115801561087c573d6000803e3d6000fd5b50505060008381526009602052604080822082815560010180546001600160a01b03191690555160008051602061203483398151915292506108c391859130913391611df7565b60405180910390a15050565b61068983838360405180602001604052806000815250610cbc565b600081815260096020908152604091829020825180840190935280548084526001909101546001600160a01b03169183019190915261093b5760405162461bcd60e51b815260040161055390611db5565b8051341461098b5760405162461bcd60e51b815260206004820152601a60248201527f4e46544d61726b65743a20696e636f72726563742070726963650000000000006044820152606401610553565b6040516323b872dd60e01b8152306004820181905233602483015260448201849052906323b872dd90606401600060405180830381600087803b1580156109d157600080fd5b505af11580156109e5573d6000803e3d6000fd5b505050600083815260096020526040812090815560010180546001600160a01b03191690555080602001516001600160a01b03166108fc610a3f6064610a39605f86600001516112b290919063ffffffff16565b906112c5565b6040518115909202916000818181858888f19350505050158015610a67573d6000803e3d6000fd5b5060008051602061203483398151915282303360006040516108c39493929190611df7565b6000818152600260205260408120546001600160a01b0316806104535760405162461bcd60e51b815260206004820152602960248201527f4552433732313a206f776e657220717565727920666f72206e6f6e657869737460448201526832b73a103a37b5b2b760b91b6064820152608401610553565b60006001600160a01b038216610b6e5760405162461bcd60e51b815260206004820152602a60248201527f4552433732313a2062616c616e636520717565727920666f7220746865207a65604482015269726f206164647265737360b01b6064820152608401610553565b506001600160a01b031660009081526003602052604090205490565b6007546001600160a01b03163314610bb45760405162461bcd60e51b815260040161055390611d80565b610bbe60006112d1565b565b60008111610c205760405162461bcd60e51b815260206004820152602760248201527f4e46544d61726b65743a207072696365206d75737420626520677265617465726044820152660207468616e20360cc1b6064820152608401610553565b610c2a3083610578565b610c3533308461068e565b60408051808201825282815233602080830182815260008781526009909252908490209251835551600190920180546001600160a01b0319166001600160a01b03909316929092179091559051600080516020612034833981519152916108c39185919030908690611df7565b60606001805461046890611cf4565b610771338383611323565b610cc6338361102c565b610ce25760405162461bcd60e51b815260040161055390611d2f565b610cee848484846113f2565b50505050565b6060610cff82610fa1565b610d655760405162461bcd60e51b815260206004820152603160248201527f45524337323155524953746f726167653a2055524920717565727920666f72206044820152703737b732bc34b9ba32b73a103a37b5b2b760791b6064820152608401610553565b60008281526006602052604081208054610d7e90611cf4565b80601f0160208091040260200160405190810160405280929190818152602001828054610daa90611cf4565b8015610df75780601f10610dcc57610100808354040283529160200191610df7565b820191906000526020600020905b815481529060010190602001808311610dda57829003601f168201915b505050505090506000610e1560408051602081019091526000815290565b9050805160001415610e28575092915050565b815115610e5a578082604051602001610e42929190611e2b565b60405160208183030381529060405292505050919050565b610e6384611425565b949350505050565b610e79600880546001019055565b6000610e8460085490565b9050610e9033826114fc565b610ed08184848080601f01602080910402602001604051908101604052809392919081815260200183838082843760009201919091525061151692505050565b6000805160206120348339815191528160003386866000604051610ef996959493929190611e5a565b60405180910390a1505050565b6007546001600160a01b03163314610f305760405162461bcd60e51b815260040161055390611d80565b6001600160a01b038116610f955760405162461bcd60e51b815260206004820152602660248201527f4f776e61626c653a206e6577206f776e657220697320746865207a65726f206160448201526564647265737360d01b6064820152608401610553565b610f9e816112d1565b50565b6000908152600260205260409020546001600160a01b0316151590565b600081815260046020526040902080546001600160a01b0319166001600160a01b0384169081179091558190610ff382610a8c565b6001600160a01b03167f8c5be1e5ebec7d5bd14f71427d1e84f3dd0314c0f7b2291e5b200ac8c7c3b92560405160405180910390a45050565b600061103782610fa1565b6110985760405162461bcd60e51b815260206004820152602c60248201527f4552433732313a206f70657261746f7220717565727920666f72206e6f6e657860448201526b34b9ba32b73a103a37b5b2b760a11b6064820152608401610553565b60006110a383610a8c565b9050806001600160a01b0316846001600160a01b031614806110de5750836001600160a01b03166110d3846104eb565b6001600160a01b0316145b80610e6357506001600160a01b0380821660009081526005602090815260408083209388168352929052205460ff16610e63565b826001600160a01b031661112582610a8c565b6001600160a01b03161461118d5760405162461bcd60e51b815260206004820152602960248201527f4552433732313a207472616e73666572206f6620746f6b656e2074686174206960448201526839903737ba1037bbb760b91b6064820152608401610553565b6001600160a01b0382166111ef5760405162461bcd60e51b8152602060048201526024808201527f4552433732313a207472616e7366657220746f20746865207a65726f206164646044820152637265737360e01b6064820152608401610553565b6111fa600082610fbe565b6001600160a01b0383166000908152600360205260408120805460019290611223908490611eca565b90915550506001600160a01b0382166000908152600360205260408120805460019290611251908490611ee1565b909155505060008181526002602052604080822080546001600160a01b0319166001600160a01b0386811691821790925591518493918716917fddf252ad1be2c89b69c2b068fc378daa952ba7f163c4a11628f55a4df523b3ef91a4505050565b60006112be8284611ef9565b9392505050565b60006112be8284611f2e565b600780546001600160a01b038381166001600160a01b0319831681179093556040519116919082907f8be0079c531659141344cd1fd0a4f28419497f9722a3daafe3b4186f6b6457e090600090a35050565b816001600160a01b0316836001600160a01b031614156113855760405162461bcd60e51b815260206004820152601960248201527f4552433732313a20617070726f766520746f2063616c6c6572000000000000006044820152606401610553565b6001600160a01b03838116600081815260056020908152604080832094871680845294825291829020805460ff191686151590811790915591519182527f17307eab39ab6107e8899845ad3d59bd9653f200f220920489ca2b5937696c31910160405180910390a3505050565b6113fd848484611112565b611409848484846115a1565b610cee5760405162461bcd60e51b815260040161055390611f42565b606061143082610fa1565b6114945760405162461bcd60e51b815260206004820152602f60248201527f4552433732314d657461646174613a2055524920717565727920666f72206e6f60448201526e3732bc34b9ba32b73a103a37b5b2b760891b6064820152608401610553565b60006114ab60408051602081019091526000815290565b905060008151116114cb57604051806020016040528060008152506112be565b806114d5846116ae565b6040516020016114e6929190611e2b565b6040516020818303038152906040529392505050565b6107718282604051806020016040528060008152506117ac565b61151f82610fa1565b6115825760405162461bcd60e51b815260206004820152602e60248201527f45524337323155524953746f726167653a2055524920736574206f66206e6f6e60448201526d32bc34b9ba32b73a103a37b5b2b760911b6064820152608401610553565b6000828152600660209081526040909120825161068992840190611912565b60006001600160a01b0384163b156116a357604051630a85bd0160e11b81526001600160a01b0385169063150b7a02906115e5903390899088908890600401611f94565b602060405180830381600087803b1580156115ff57600080fd5b505af192505050801561162f575060408051601f3d908101601f1916820190925261162c91810190611fd1565b60015b611689573d80801561165d576040519150601f19603f3d011682016040523d82523d6000602084013e611662565b606091505b5080516116815760405162461bcd60e51b815260040161055390611f42565b805181602001fd5b6001600160e01b031916630a85bd0160e11b149050610e63565b506001949350505050565b6060816116d25750506040805180820190915260018152600360fc1b602082015290565b8160005b81156116fc57806116e681611fee565b91506116f59050600a83611f2e565b91506116d6565b60008167ffffffffffffffff81111561171757611717611b5d565b6040519080825280601f01601f191660200182016040528015611741576020820181803683370190505b5090505b8415610e6357611756600183611eca565b9150611763600a86612009565b61176e906030611ee1565b60f81b8183815181106117835761178361201d565b60200101906001600160f81b031916908160001a9053506117a5600a86611f2e565b9450611745565b6117b683836117df565b6117c360008484846115a1565b6106895760405162461bcd60e51b815260040161055390611f42565b6001600160a01b0382166118355760405162461bcd60e51b815260206004820181905260248201527f4552433732313a206d696e7420746f20746865207a65726f20616464726573736044820152606401610553565b61183e81610fa1565b1561188b5760405162461bcd60e51b815260206004820152601c60248201527f4552433732313a20746f6b656e20616c7265616479206d696e746564000000006044820152606401610553565b6001600160a01b03821660009081526003602052604081208054600192906118b4908490611ee1565b909155505060008181526002602052604080822080546001600160a01b0319166001600160a01b03861690811790915590518392907fddf252ad1be2c89b69c2b068fc378daa952ba7f163c4a11628f55a4df523b3ef908290a45050565b82805461191e90611cf4565b90600052602060002090601f0160209004810192826119405760008555611986565b82601f1061195957805160ff1916838001178555611986565b82800160010185558215611986579182015b8281111561198657825182559160200191906001019061196b565b50611992929150611996565b5090565b5b808211156119925760008155600101611997565b6001600160e01b031981168114610f9e57600080fd5b6000602082840312156119d357600080fd5b81356112be816119ab565b60005b838110156119f95781810151838201526020016119e1565b83811115610cee5750506000910152565b60008151808452611a228160208601602086016119de565b601f01601f19169290920160200192915050565b6020815260006112be6020830184611a0a565b600060208284031215611a5b57600080fd5b5035919050565b80356001600160a01b0381168114611a7957600080fd5b919050565b60008060408385031215611a9157600080fd5b611a9a83611a62565b946020939093013593505050565b600080600060608486031215611abd57600080fd5b611ac684611a62565b9250611ad460208501611a62565b9150604084013590509250925092565b600060208284031215611af657600080fd5b6112be82611a62565b60008060408385031215611b1257600080fd5b50508035926020909101359150565b60008060408385031215611b3457600080fd5b611b3d83611a62565b915060208301358015158114611b5257600080fd5b809150509250929050565b634e487b7160e01b600052604160045260246000fd5b60008060008060808587031215611b8957600080fd5b611b9285611a62565b9350611ba060208601611a62565b925060408501359150606085013567ffffffffffffffff80821115611bc457600080fd5b818701915087601f830112611bd857600080fd5b813581811115611bea57611bea611b5d565b604051601f8201601f19908116603f01168101908382118183101715611c1257611c12611b5d565b816040528281528a6020848701011115611c2b57600080fd5b82602086016020830137600060208483010152809550505050505092959194509250565b60008060208385031215611c6257600080fd5b823567ffffffffffffffff80821115611c7a57600080fd5b818501915085601f830112611c8e57600080fd5b813581811115611c9d57600080fd5b866020828501011115611caf57600080fd5b60209290920196919550909350505050565b60008060408385031215611cd457600080fd5b611cdd83611a62565b9150611ceb60208401611a62565b90509250929050565b600181811c90821680611d0857607f821691505b60208210811415611d2957634e487b7160e01b600052602260045260246000fd5b50919050565b60208082526031908201527f4552433732313a207472616e736665722063616c6c6572206973206e6f74206f6040820152701ddb995c881b9bdc88185c1c1c9bdd9959607a1b606082015260800190565b6020808252818101527f4f776e61626c653a2063616c6c6572206973206e6f7420746865206f776e6572604082015260600190565b60208082526022908201527f4e46544d61726b65743a206e6674206e6f74206c697374656420666f722073616040820152616c6560f01b606082015260800190565b9384526001600160a01b0392831660208501529116604083015260a060608301819052600090830152608082015260c00190565b60008351611e3d8184602088016119de565b835190830190611e518183602088016119de565b01949350505050565b8681526001600160a01b0386811660208301528516604082015260a06060820181905281018390526000838560c0840137600060c0858401015260c0601f19601f8601168301019050826080830152979650505050505050565b634e487b7160e01b600052601160045260246000fd5b600082821015611edc57611edc611eb4565b500390565b60008219821115611ef457611ef4611eb4565b500190565b6000816000190483118215151615611f1357611f13611eb4565b500290565b634e487b7160e01b600052601260045260246000fd5b600082611f3d57611f3d611f18565b500490565b60208082526032908201527f4552433732313a207472616e7366657220746f206e6f6e20455243373231526560408201527131b2b4bb32b91034b6b83632b6b2b73a32b960711b606082015260800190565b6001600160a01b0385811682528416602082015260408101839052608060608201819052600090611fc790830184611a0a565b9695505050505050565b600060208284031215611fe357600080fd5b81516112be816119ab565b600060001982141561200257612002611eb4565b5060010190565b60008261201857612018611f18565b500690565b634e487b7160e01b600052603260045260246000fdfe705332a8918666802fc1504f63ff1f002a5f6cedd30d59ad7ae0b5281aeb8dcaa2646970667358221220670d81ccc352f1de6d01804b50f4b7571c530e07a1347b6cf45161c7e6204e8164736f6c63430008090033",
  "linkReferences": {},
  "deployedLinkReferences": {}
}